:020000040800F2
:10000000401A0020C1010008594C000801400008B6
:10001000554C0008F5090008015D000800000000CB
:10002000000000000000000000000000D3010008F4
:10003000D10B000800000000D70100080952000899
:10004000DB010008DB010008DB010008D94C0008D7
:10005000DB010008DB010008DB010008DB01000810
:10006000DB010008DB010008DB010008DB01000800
:10007000DB010008DB010008DB010008DB010008F0
:10008000DB010008DB010008DB010008DB010008E0
:10009000DB010008DB010008DB010008DB010008D0
:1000A000DB010008DB010008DB010008DB010008C0
:1000B000E5520008DB010008DB010008DB01000855
:1000C000DB010008DB010008DB010008E94C000847
:1000D000DB010008DB010008DB010008DB01000890
:1000E000DB010008C94C0008DB010008DB01000847
:1000F000DB010008DB010008DB010008DB01000870
:10010000DB010008DB010008DB010008DB0100085F
:10011000DB010008DB010008DB010008DB0100084F
:10012000F9090008090A0008DB010008DB010008E2
:10013000190A0008DB010008DB010008DB010008E8
:10014000DB010008DB010008DB010008DB0100081F
:10015000290A0008DB010008DB010008DB010008B8
:10016000DB010008DB010008DB010008DB010008FF
:10017000DB010008DB010008DB01000800000000D3
:10018000DB010008DB010008DB010008DB010008DF
:10019000F94C0008094D0008194D0008DB01000862
:1001A0000000000000000000DB010008DFF80CD0B8
:1001B00000F00EFC00480047B15F0008401A002024
:1001C0000648804706480047FEE7FEE7FEE7FEE7F1
:1001D000FEE7FEE7FEE7FEE7FEE7FEE7D152000896
:1001E000AD0100082DE9F05F0546002092469B46D0
:1001F00088460646814640241BE02846414647463D
:10020000224600F0AEFA53465A46C01A914110D326
:1002100011461846224600F095FA2D1A67EB0108A0
:100220004F4622460120002100F08CFA17EB00090E
:100230004E41201EA4F10104DFDC484631462A4627
:100240004346BDE8F09F2DE9F0410024061B2546FA
:1002500071F1000605DA01240027D0EB070067EBF7
:100260000101161E73F1000605DA0027D2EB070222
:10027000012567EB0303FFF7B5FF86460E461746D9
:100280009C46AC4204D00025D0EB050E65EB010680
:1002900024B10020D2EB000760EB030C704631461E
:1002A0003A466346BDE8F081D2B201E000F8012B86
:1002B000491EFBD270470022F6E710B513460A46E6
:1002C00004461946FFF7F0FF204610BD2DE9FE4F0A
:1002D000804681EA0300C00F0C46009021F00041E7
:1002E00023F00045B8EB0200A94105D24046214663
:1002F00090461C460B46024623F00040104347D070
:10030000270DC7F30A00C3F30A510290401A019067
:1003100040286BDAC3F3130040F4801B0098924628
:1003200020B10023D2EB030A63EB0B0B0198594673
:10033000C0F14002504600F005FA06460D46504610
:100340005946019A00F01DFA10EB080061410024A3
:1003500087EA115284EAE7731A4340D0009A62B3E5
:10036000019A012A4FEA075215DC001B61EB0201DA
:100370004FF0004202EA0752CDE90042001C41F56D
:10038000801132462B4600F054FA03B0BDE8F08FDE
:1003900040462146F9E7001B61EB0201001C41F5D4
:1003A000801300185B412018A2F5001747EB0301EA
:1003B00040EAD570B6196D4111E06D084FEA360676
:1003C00045EAC0754FEA0752001B61EB0201001CB1
:1003D00041F5801149084FEA300000195141324679
:1003E0002B4603B0BDE8F04F00F014BA009801228C
:1003F00040000023D0EB020263EBE073009821463B
:100400004FEAE074B8EB000061EB0401E9E783F028
:1004100000435BE781F0004158E72DE9FE4F81EA98
:10042000030404F0004421F0004100944FF0000B5D
:1004300023F0004350EA01045ED052EA03045BD08B
:10044000C3F30A54C1F30A552C44A4F2F3340194C3
:10045000A0FB0254C1F3130141F48011C3F3130351
:1004600043F4801301FB024400FB034E840A970A05
:1004700044EA815447EA8357A4FB076802958D0A32
:1004800005FB07854FEA932C04FB0C542705029DBE
:100490004FEA065847EA1637B5EB08056EEB070C2E
:1004A000870E920E47EA811742EA8312A7FB0201E8
:1004B000B6EB0B0164EB00042B0D43EA0C335E1822
:1004C00044EB1C50DA465146E7FB0201C5F3130426
:1004D0004FEA0B3343EA14534FEA0432019C43EAD8
:1004E0000603A4F10C040294009CCDE900B400F0D2
:1004F000A0F903B0BDE8F08F00200146F9E72DE92F
:10050000F04D81EA030404F0004B21F0004514464D
:100510004FF0000A23F0004150EA050220D054EACF
:1005200001021DD0C5F30A570246C5F31303C1F3F8
:100530001300C1F30A5640F4801543F48013A7EB6F
:100540000608101BD64608F2FD3873EB050002D3EF
:1005500008F1010801E092185B41B8F1000F03DADD
:1005600000200146BDE8F08D00204FF480110646C2
:1005700084460EE0171B73EB050705D3121B63EBD4
:10058000050306434CEA010C49084FEA3000921873
:100590005B4150EA0107EDD152EA030012D082EA32
:1005A000040083EA0501084305D0101BAB4106D2C5
:1005B0000122002306E000224FF0004302E06FF02A
:1005C000010253101AEB06004CEB085110EB0A0025
:1005D00041EB0B01BDE8F04D00F01CB930B5041E35
:1005E00071F1000404DB4FF00044404264EB010170
:1005F000141E73F1000405DB1C464FF00043524209
:1006000063EB0403801A994101D3012030BD00201F
:1006100030BD30B5041E71F1000404DB4FF000441E
:10062000404264EB0101141E73F1000405DB1C461B
:100630004FF00043524263EB0403101A8B4101D385
:10064000012030BD002030BD3EB5CA17CB0F0024BD
:1006500050405140C0186141DA0740F233430094E2
:10066000CDE901232246234600F0E3F803B030BD74
:100670000EB540F2334202920022CDE90022134629
:1006800000F0D7F803B000BDC1F30A5210B5C1F3B2
:10069000130140F2FF3341F480119A4201DA002045
:1006A00010BD40F233439A42A2F2334203DC52427D
:1006B00000F057F810BD904010BD00F0004230F03F
:1006C00000400AD0C10D01F56071C0F3160042EA86
:1006D0000151C2084007114370470020014670478E
:1006E00001F0004330B421F0004150EA010206D08D
:1006F0000A0DA2F56072C1F31301002A02DC30BCBE
:1007000000207047440F44EAC104C100E01830BC27
:1007100000EBC25000F047B830B50B460146002050
:100720002022012409E021FA02F59D4205D303FAB3
:1007300002F5491B04FA02F52844151EA2F1010234
:10074000F1DC30BD202A04DB203A00FA02F100205F
:1007500070479140C2F1200320FA03F319439040FF
:100760007047202A04DB203A21FA02F0002170476A
:1007700021FA02F3D040C2F1200291400843194609
:100780007047202A06DBCB17203A41FA02F043EAF1
:10079000E07306E041FA02F3D040C2F1200291403A
:1007A0000843194670470029A8BF7047401C4900FC
:1007B00008BF20F00100704710B4B0FA80FC00FAC6
:1007C0000CF050EA010404BF10BC704749B1CCF1F1
:1007D000200421FA04F411FA0CF118BF012121437D
:1007E0000843A3EB0C01CB1D4FEA00614FEA102038
:1007F00042BF002010BC704700EBC35010440029DA
:10080000A4BF10BC7047401C490008BF20F0010085
:1008100010BC704710B5141E73F1000408DA401CB8
:1008200041F1000192185B411A4301D120F001000F
:1008300010BD2DE9F04D92469B4611B1B1FA81F2FF
:1008400002E0B0FA80F220329046FFF77BFF0446C8
:100850000F4640EA0A0041EA0B0153465A46084354
:1008600013D0114653EA010019D0C8F14002504696
:10087000FFF777FF05460E46504659464246FFF7BA
:1008800061FF084305D0012004E020463946BDE859
:10089000F08D0020054346EAE0762C4337430A9862
:1008A0006305E40AA0EB08000022FD0A44EA47546D
:1008B0000A3002D500200146E9E701051019694117
:1008C000DDE9084500196941BDE8F04DA2E72DE9D1
:1008D000F04D00231A461B1A8A4103DB0020014613
:1008E000BDE8F08DC1F30A52C1F3130141F4801544
:1008F0004FF0000BD10702D100186D41521E0027A6
:10090000044640F2FF11384601EB620A3E4680463B
:10091000024600204FF48011FFF723FFC2197141F6
:10092000BB1846EB0100B4EB030C75EB000C04D3D1
:10093000E41A65EB000517460E46241908F101007C
:100940006D4180463428E3DDF91946EB0600091BAA
:10095000A84103D24FF0FF32134601E000221346B4
:100960001BEB070046EB0A51BDE8F04DFFF752BF05
:10097000C1F30A52C1F3130140F2FF3341F4801175
:100980009A4202DA00200146704740F233439A420D
:10099000A2F2334202DC5242FFF7E3BEFFF7D2BEBF
:1009A00030B5041E71F1000404DB4FF000444042F6
:1009B00064EB0101141E73F1000405DB1C464FF0CB
:1009C0000043524263EB0403994208BF904230BD9A
:1009D000064C074D06E0E06840F0010394E807008C
:1009E00098471034AC42F6D3FFF7E4FBF8750008E3
:1009F00018760008FFE7FEE780B540F22000C2F25B
:100A0000000000F03BF980BD80B540F28000C2F2EA
:100A1000000000F033F980BD80B540F24010C2F212
:100A2000000000F02BF980BD80B540F2E000C2F27A
:100A3000000000F023F980BD82B001900198007899
:100A400010384AF6AB21CAF6AA21A0FB0110000912
:100A50000090009947F28E40C0F60000405C01997A
:100A6000C8650098042807D3FFE7019908680422A5
:100A700062F30900886506E00199086840F2FF32D8
:100A800090438865FFE70198806D02B070470000D1
:100A900086B0059000208DF813000598806A0390B9
:100AA0000598806910BBFFE70398029003281BD8C4
:100AB0000299DFE801F0020D0218059890F82F0066
:100AC000C00720B1FFE701208DF81300FFE70CE01D
:100AD0000598C06AB0F1C07F04D1FFE701208DF80E
:100AE0001300FFE701E000E0FFE745E005988069BB
:100AF000B0F5005F25D1FFE70398019003281ED8C9
:100B00000199DFE801F00206021101208DF81300BF
:100B100016E0059890F82F00C00720B1FFE70120EC
:100B20008DF81300FFE70BE00598C06AB0F1C07FB5
:100B300004D1FFE701208DF81300FFE700E0FFE795
:100B400019E003980090032804D3FFE700980328D6
:100B500004D00EE001208DF813000BE0059890F80A
:100B60002F00C00720B1FFE701208DF81300FFE739
:100B700000E0FFE7FFE7FFE79DF8130006B07047CE
:100B800084B0039002910192009303980168086871
:100B900020F4802008600098039909684860039851
:100BA0008068402809D1FFE70198039909688860A7
:100BB000029803990968C86008E0029803990968D7
:100BC0008860019803990968C860FFE704B070471E
:100BD0007047000072B6FFE7FEE7000080B582B004
:100BE00000208DF80700FFE79DF807005F2820DC54
:100BF000FFE79DF8070005F04DF99DF8072040F24A
:100C00004141C2F20001009188540A2000F0E0FA4C
:100C100000989DF80710425C47F24550C0F600006E
:100C200005F056FEFFE79DF8070001308DF807003C
:100C3000DAE702B080BD000082B00090009890F822
:100C40003500022807D0FFE7009980204865012081
:100C50008DF807000EE00099052081F83500009816
:100C60000168086820F001000860FFE700208DF8A7
:100C70000700FFE79DF8070002B0704780B586B017
:100C800005900020039040F20800C2F200000068C6
:100C900048F2B511C1F64E31A0FB0110800A029056
:100CA0000598806D0190019800680490049805995A
:100CB000C96DC840000700281AD5FFE705980068ED
:100CC00000684007002812D5FFE70598016808680A
:100CD00020F0040008600598C16D08208840019943
:100CE00088600599486D40F001004865FFE7FFE71F
:100CF00004980599C96DC840C007A0B1FFE70598E1
:100D000000684069000600280CD5FFE70598C16D12
:100D100001208840019988600599486D40F00200E3
:100D20004865FFE7FFE704980599C96DC84040078B
:100D3000002814D5FFE705980068006880070028A0
:100D40000CD5FFE70598C16D0420884001998860A3
:100D50000599486D40F004004865FFE7FFE70498F7
:100D60000599C96DC840C006002847D5FFE705981A
:100D700000680068000700283FD5FFE70598C16DAF
:100D80001020884001998860059800680068400339
:100D900000281AD5FFE705980068006800030028BE
:100DA00009D4FFE70598006C20B1FFE70598016CB6
:100DB0008847FFE708E00598806C20B1FFE70598B9
:100DC000816C8847FFE7FFE716E005980068006838
:100DD000C005002807D4FFE705980168086820F0DF
:100DE00008000860FFE70598006C20B1FFE7059850
:100DF000016C8847FFE7FFE7FFE7FFE704980599E5
:100E0000C96DC8408006002840F18D80FFE7059835
:100E100000680068C006002840F18480FFE705985C
:100E2000C16D2020884001998860059890F83500B0
:100E3000052834D1FFE705980168086820F01600FE
:100E4000086005980168486920F0800048610598AD
:100E5000006C20B9FFE70598806C38B1FFE7059872
:100E60000168086820F008000860FFE70598C16D78
:100E70003F208840019988600599012081F835005C
:100E8000FFE70599002081F83400FFE70598006D21
:100E900020B1FFE70598016D8847FFE77BE00598E3
:100EA00000680068400300281AD5FFE7059800682D
:100EB00000680003002809D4FFE70598406C20B1C2
:100EC000FFE70598416C8847FFE708E00598C06B8D
:100ED00020B1FFE70598C16B8847FFE7FFE720E0F7
:100EE000059800680068C005002811D4FFE7059840
:100EF0000168086820F0100008600599012081F859
:100F00003500FFE70599002081F83400FFE7FFE78F
:100F10000598C06B20B1FFE70598C16B8847FFE7D4
:100F2000FFE7FFE7FFE70598406DA0B3FFE70598EF
:100F3000406DC00730B3FFE70599052081F8350003
:100F400005980168086820F001000860FFE7039831
:100F5000013003900299884201D9FFE707E0FFE7DB
:100F6000059800680068C0070028F0D1FFE70599E0
:100F7000012081F83500FFE70599002081F8340051
:100F8000FFE7FFE70598C06C20B1FFE70598C16C4B
:100F90008847FFE7FFE706B080BD000080B586B058
:100FA00004900020039000F045FB0290049820B9C3
:100FB000FFE701208DF81700A3E00498406A08B10C
:100FC000FFE7FFE70499022081F83500FFE7049965
:100FD000002081F83400FFE704980168086820F0D9
:100FE00001000860FFE7049800680068C00790B13E
:100FF000FFE700F01FFB0299401A06280AD3FFE71B
:101000000499202048650499032081F835008DF863
:10101000170076E0E7E704980068006803900398FB
:1010200048F23F01CFF2100108400390049900916B
:101030004868D1F808C0CB680A6940EA0C00184338
:1010400010434A6910438A691043CA691043096A08
:1010500001430398084303900498406A042808D188
:10106000FFE70499C86A096B01430398084303909A
:10107000FFE70398049909680860049800684069CC
:101080000390039820F0070003900498416A0398A6
:10109000084303900498406A04281AD1FFE7049893
:1010A000816A0398084303900498C06A80B1FFE7FF
:1010B0000498FFF7EDFC50B1FFE704994020486524
:1010C0000499012081F835008DF8170019E0FFE739
:1010D000FFE703980499096848610498FFF7ACFC9E
:1010E00001900498C16D3F2088400199886004995F
:1010F00000204865049A012182F835108DF8170008
:10110000FFE79DF8170006B080BD000080B588B0ED
:10111000069005910492039300208DF80B00069829
:10112000806D0190FFE7069890F83400012804D103
:10113000FFE702208DF81F0045E00699012081F8A5
:101140003400FFE7FFE7069890F8350001282BD11F
:10115000FFE70699022081F83500069900204865CE
:1011600006980599049A039BFFF70AFD0698C16D3E
:101170003F2088400199886006980168086840F01F
:10118000160008600698006C38B1FFE70698016801
:10119000086840F008000860FFE7069801680868E2
:1011A00040F00100086009E0FFE70699002081F89F
:1011B0003400FFE702208DF80B00FFE79DF80B00DD
:1011C0008DF81F00FFE79DF81F0008B080BD0000EC
:1011D00080B584B0039000F02DFA0290039801903E
:1011E0000198013048B1FFE740F20C00C2F2000064
:1011F0000178019808440190FFE7FFE700F01AFA30
:101200000299401A0199884201D2FFE7F6E704B03B
:1012100080BD000090B00F900E9100200C900B90BC
:101220000A900D90FFE70D980F2800F2E881FFE784
:101230000D99012088400C900E9800680C99084088
:101240000B900B980C99884240F0D481FFE70E98E0
:10125000406800F00300012807D0FFE70E984068BF
:1012600000F0030002282FD1FFE70F9880680A9052
:101270000D984100032000FA01F10A9888430A9072
:101280000E98C0680D99490000FA01F10A980843C8
:101290000A900A980F9988600F9840680A900D99F3
:1012A000012000FA01F10A9888430A900E984068DC
:1012B000C0F300100D9900FA01F10A9808430A9052
:1012C0000A980F994860FFE70E98406800F0030005
:1012D000032818D0FFE70F98C0680A900D984100C6
:1012E000032000FA01F10A9888430A900E9880685A
:1012F0000D99490000FA01F10A9808430A900A98EA
:101300000F99C860FFE70E98406800F003000228BC
:1013100026D1FFE70F980D996FF0030202EA510101
:101320000844006A0A900D9800F0070081000F2021
:1013300000FA01F10A9888430A900E9800690D9905
:1013400001F00701890000FA01F10A9808430A90A8
:101350000A980F990D9B02EA530211440862FFE7B5
:101360000F9800680A900D984100032000FA01F1DF
:101370000A9888430A900E98406800F003000D997F
:10138000490000FA01F10A9808430A900A980F9957
:1013900008600E9880798007002800F02A81FFE716
:1013A000FFE70020099043F64400C4F20200016800
:1013B00041F480410160006800F480400990099880
:1013C000FFE70D9820F0030043F60801C4F2010185
:1013D00040580A900D9800F0030081000F2000FA99
:1013E00001F10A9888430A900F980021C4F2020183
:1013F000884203D1FFE7002008907AE00F9840F27E
:101400000041C4F20201884203D1FFE701200790A6
:101410006CE00F9840F60001C4F20201884203D14B
:10142000FFE7022006905EE00F9840F60041C4F20C
:101430000201884203D1FFE70320059050E00F9896
:1014400041F20001C4F20201884203D1FFE7042007
:10145000049042E00F9841F20041C4F20201884238
:1014600003D1FFE70520039034E00F9841F6000117
:10147000C4F20201884203D1FFE70620029026E071
:101480000F9841F60041C4F20201884203D1FFE700
:101490000720019018E00F9842F20001C4F2020107
:1014A000884203D1FFE7082000900AE00F9942F23A
:1014B0000042C4F202020A20914208BF09200090B3
:1014C000FFE700980190FFE701980290FFE702987C
:1014D0000390FFE703980490FFE704980590FFE767
:1014E00005980690FFE706980790FFE70798089091
:1014F000FFE70898C0B20D9901F00301890000FAD6
:1015000001F10A9808430A900A980D9921F0030105
:1015100043F60802C4F20102885043F60840C4F2C0
:10152000010000680A900B990A9888430A900E9867
:101530008079C006002805D5FFE70B990A98084373
:101540000A90FFE70A9843F60841C4F201010860D7
:1015500043F60C40C4F2010000680A900B990A9807
:1015600088430A900E9880798006002805D5FFE709
:101570000B990A9808430A90FFE70A9843F60C4132
:10158000C4F20101086043F60440C4F2010000689F
:101590000A900B990A9888430A900E9880798007E0
:1015A000002805D5FFE70B990A9808430A90FFE742
:1015B0000A9843F60441C4F20101086043F6004072
:1015C000C4F2010000680A900B990A9888430A90B7
:1015D0000E988079C00728B1FFE70B990A98084355
:1015E0000A90FFE70A9843F60041C4F2010108603F
:1015F000FFE7FFE7FFE70D9801300D9013E610B00D
:101600007047000082B00190ADF802108DF8012003
:101610009DF8010028B1FFE7BDF80200019988613B
:1016200005E0BDF80200000401998861FFE702B0FF
:101630007047000041F23C60C2F200000068704751
:1016400040F20C00C2F20000027841F23C61C2F2AA
:1016500000010868104408607047000080B543F638
:101660000041C4F20201086840F400700860086894
:1016700040F480600860086840F4807008600320CF
:1016800000F08AF80F2000F005F800F03BF8002089
:1016900080BD000080B582B0009040F20800C2F228
:1016A0000000006840F20C01C2F200010A784FF419
:1016B0007A71B1FBF2F1B0FBF1F001F091FD20B1D4
:1016C000FFE701208DF8070018E000980F280DD8DB
:1016D000FFE700994FF0FF30002200F043F8009838
:1016E00040F21001C2F20001086003E001208DF811
:1016F000070003E000208DF80700FFE79DF80700D2
:1017000002B080BD82B0FFE70020019043F64400A4
:10171000C4F20200016841F480410160006800F4F5
:10172000804001900198FFE7FFE70020009043F61A
:101730004000C4F20200016841F08051016000687D
:1017400000F0805000900098FFE702B07047000062
:1017500080B582B08DF807009DF9070004F0D2FA39
:1017600002B080BD80B586B08DF817000491039259
:101770000020029004F0DEFA02909DF9170001901B
:1017800002980499039A03F069FA0146019804F05B
:10179000D9FA06B080BD000080B582B001900198F2
:1017A00004F0F2FA02B080BD80B584B002900191DD
:1017B000029820B9FFE701208DF80F0021E1019880
:1017C00043F60041C4F20201096801F00F018842AA
:1017D00012D9FFE7019943F60040C4F202000170FC
:1017E000006800F00F000199884204D0FFE7012053
:1017F0008DF80F0005E1FFE70298007880070028C8
:101800002AD5FFE7029800784007002809D5FFE7AE
:1018100043F60801C4F20201086840F4E050086091
:10182000FFE7029800780007002809D5FFE743F694
:101830000801C4F20201086840F460400860FFE754
:1018400043F60801C4F20201086820F0F000029A91
:10185000926810430860FFE702980078C0070028EC
:101860006ED0FFE702984068012811D1FFE743F6E8
:101870000000C4F20200006800F400310020B0EB68
:10188000514F04D1FFE701208DF80F00B9E02CE0A3
:1018900002984068022805D0FFE7029840680328B4
:1018A00011D1FFE743F60000C4F20200006800F027
:1018B00000710020B0EB516F04D1FFE701208DF8DB
:1018C0000F009EE010E043F60000C4F20200006842
:1018D00000F002010020B0EB510F04D1FFE701201E
:1018E0008DF80F008DE0FFE7FFE743F60801C4F233
:1018F0000201086820F00300029A52681043086051
:10190000FFF798FE0090FFE743F60800C4F20200DC
:10191000006800F00C0002994968B0EB810F0ED00E
:10192000FFE7FFF787FE0099401A41F289318842AC
:1019300004D3FFE703208DF80F0062E0E4E7FFE740
:10194000019843F60041C4F20201096801F00F0159
:10195000884212D2FFE7019943F60040C4F2020028
:101960000170006800F00F000199884204D0FFE781
:1019700001208DF80F0044E0FFE70298007840074F
:1019800000280CD5FFE743F60801C4F202010868FD
:1019900020F4E050029AD26810430860FFE70298F2
:1019A0000078000700280DD5FFE743F60801C4F2D0
:1019B0000201086820F46040029A126940EAC200FD
:1019C0000860FFE700F04CF843F60801C4F202019A
:1019D0000968C9B20A0947F27641C0F60001895C7C
:1019E000C84040F20801C2F20001086040F2100055
:1019F000C2F200000068FFF74DFE00208DF80F00D6
:101A0000FFE79DF80F0004B080BD000040F2080021
:101A1000C2F200000068704780B5FFF7F7FF43F699
:101A20000801C4F202010968C1F3822247F286412B
:101A3000C0F60001895CC84080BD000080B5FFF79A
:101A4000E5FF43F60801C4F20201096889B24A0BB6
:101A500047F28641C0F60001895CC84080BD0000A5
:101A600080B586B00020059004900390029043F664
:101A70000800C4F20200006800F00C000146019169
:101A800040B1FFE7019804280AD0FFE70198082831
:101A90000AD04BE042F20040C0F2F40002904BE06A
:101AA0004FF47A00029047E043F60400C4F20200CB
:101AB000016801F03F01059100684002002811D53E
:101AC000FFE743F60400C4F202000068C0F3881088
:101AD0004FF47A01A0FB0101059A0023FEF782FB77
:101AE000049012E043F60400C4F202000068C0F360
:101AF000881042F20041C0F2F401A0FB0101059AF6
:101B00000023FEF76FFB0490FFE743F60400C4F2E6
:101B10000200006800F44031022000EBD130039055
:101B200004980399B0FBF1F0029005E042F2004006
:101B3000C0F2F4000290FFE7029806B080BD0000FA
:101B400080B586B00490049820B9FFE701208DF895
:101B5000170050E304980078C007002800F0A58023
:101B6000FFE743F60800C4F20200006800F00C0032
:101B7000042813D0FFE743F60800C4F2020000680F
:101B800000F00C0008281ED1FFE743F60400C4F261
:101B9000020000684002002815D5FFE743F6000068
:101BA000C4F20200006800F400310020B0EB514F95
:101BB00008D0FFE70498406820B9FFE701208DF8BE
:101BC000170018E370E0FFE704984068B0F5803F25
:101BD00009D1FFE743F60001C4F20201086840F4AE
:101BE0008030086020E004984068B0F5A02F0DD147
:101BF000FFE743F60001C4F20201086840F48020C8
:101C00000860086840F4803008600CE043F600018A
:101C1000C4F20201086820F480300860086820F4EB
:101C200080200860FFE7FFE7FFE704984068E8B11D
:101C3000FFE7FFF7FFFC0390FFE743F60000C4F265
:101C40000200006800F400310020B0EB514F0CD1CD
:101C5000FFE7FFF7EFFC0399401A652804D3FFE77D
:101C600003208DF81700C6E2E7E71CE0FFF7E2FC6F
:101C70000390FFE743F60000C4F20200006800F49E
:101C800000310020B0EB514F0CD0FFE7FFF7D2FC42
:101C90000399401A652804D3FFE703208DF8170045
:101CA000A9E2E7E7FFE7FFE7FFE70498007880078E
:101CB000002840F19680FFE743F60800C4F20200D6
:101CC000006810F00C0F13D0FFE743F60800C4F2D1
:101CD0000200006800F00C0008282CD1FFE743F652
:101CE0000400C4F2020000684002002823D4FFE789
:101CF00043F60000C4F20200006800F00201002078
:101D0000B0EB510F09D0FFE70498C068012804D058
:101D1000FFE701208DF817006DE243F60001C4F2E1
:101D20000201086820F0F800049A126940EAC20033
:101D30000860FFE754E00498C06870B3FFE7002133
:101D4000C4F2472101200860FFF774FC0390FFE70D
:101D500043F60000C4F20200006800F00201002017
:101D6000B0EB510F0CD1FFE7FFF764FC0399401A69
:101D7000032804D3FFE703208DF817003BE2E7E7D1
:101D800043F60001C4F20201086820F0F800049A4A
:101D9000126940EAC200086021E00021C4F2472134
:101DA00000200860FFF746FC0390FFE743F60000C1
:101DB000C4F20200006800F002010020B0EB510FF5
:101DC0000CD0FFE7FFF736FC0399401A032804D331
:101DD000FFE703208DF817000DE2E7E7FFE7FFE7D5
:101DE000FFE704980078000700284BD5FFE7049828
:101DF000406918B3FFE740F68061C4F24721012033
:101E00000860FFF717FC0390FFE743F67400C4F285
:101E10000200006800F002010020B0EB510F0CD16D
:101E2000FFE7FFF707FC0399401A032804D3FFE7F5
:101E300003208DF81700DEE1E7E722E040F680613D
:101E4000C4F2472100200860FFF7F4FB0390FFE78E
:101E500043F67400C4F20200006800F002010020A2
:101E6000B0EB510F0CD0FFE7FFF7E4FB0399401AEA
:101E7000032804D3FFE703208DF81700BBE1E7E751
:101E8000FFE7FFE7049800784007002840F1CE8084
:101E9000FFE700208DF8070043F64000C4F202007F
:101EA0000068C000002815D4FFE7FFE7002000907D
:101EB00043F64000C4F20200016841F08051016025
:101EC000006800F0805000900098FFE701208DF836
:101ED0000700FFE747F20000C4F200000068C005F9
:101EE000002822D4FFE747F20001C4F2000108688D
:101EF00040F480700860FFF79DFB0390FFE747F216
:101F00000000C4F200000068C00500280CD4FFE700
:101F1000FFF790FB0399401A032804D3FFE703203F
:101F20008DF8170067E1EAE7FFE7FFE704988068AC
:101F3000012809D1FFE743F67001C4F202010868E5
:101F400040F0010008601FE00498806805280DD16A
:101F5000FFE743F67001C4F20201086840F0040094
:101F60000860086840F0010008600CE043F670016A
:101F7000C4F20201086820F001000860086820F03F
:101F800004000860FFE7FFE7FFE704988068F8B106
:101F9000FFE7FFF74FFB0390FFE743F67000C4F243
:101FA0000200006800F002010020B0EB510F0ED1DA
:101FB000FFE7FFF73FFB0399401A41F2893188425E
:101FC00004D3FFE703208DF8170014E1E5E71EE0D6
:101FD000FFF730FB0390FFE743F67000C4F2020006
:101FE000006800F002010020B0EB510F0ED0FFE7B7
:101FF000FFF720FB0399401A41F28931884204D34C
:10200000FFE703208DF81700F5E0E5E7FFE79DF80F
:102010000700012809D1FFE743F64001C4F202019D
:10202000086820F080500860FFE7FFE704988069A7
:10203000002800F0DC80FFE743F60800C4F202004D
:10204000006800F00C00082800F08580FFE7049885
:10205000806902285CD1FFE76021C4F2472100209B
:102060000860FFF7E7FA0390FFE743F60000C4F2C9
:102070000200006800F000710020B0EB516F0CD03E
:10208000FFE7FFF7D7FA0399401A032804D3FFE7C5
:1020900003208DF81700AEE0E7E70499C869D1F88E
:1020A00020C04B6A8A6A40EA0C0040EA8310D203DF
:1020B0004FF6FF739A43A2F580321043C96A40EA93
:1020C000016043F60401C4F2020108606021C4F219
:1020D000472101200860FFF7ADFA0390FFE743F6C0
:1020E0000000C4F20200006800F000710020B0EBB4
:1020F000516F0CD1FFE7FFF79DFA0399401A0328AF
:1021000004D3FFE703208DF8170074E0E7E721E030
:102110006021C4F2472100200860FFF78BFA03908A
:10212000FFE743F60000C4F20200006800F000710F
:102130000020B0EB516F0CD0FFE7FFF77BFA03995B
:10214000401A032804D3FFE703208DF8170052E05C
:10215000E7E7FFE74AE004988069012804D1FFE738
:1021600001208DF8170046E043F60400C4F2020097
:102170000068029004988069012831D0FFE7029836
:1021800000F480000499C969884229D1FFE70298C8
:1021900000F03F000499096A884221D1FFE70298C4
:1021A00047F6C07108400499496AB0EB811F17D106
:1021B000FFE7029800F440300499896AC9034FF69A
:1021C000FF729143A1F58031884209D1FFE702985F
:1021D00000F070600499C96AB0EB016F04D0FFE7AA
:1021E00001208DF8170006E0FFE7FFE7FFE700207A
:1021F0008DF81700FFE79DF8170006B080BD0000BE
:1022000081B0009001B0704781B0009001B070477C
:1022100080B582B0019043F61441C4F201014FF43D
:102220008000086001980068C06800F480610020A8
:10223000B0EB912F0ED0FFE701980068C06860F402
:10224000906020F4806001990968C8600198FFF7E8
:10225000DBFFFFE701990120487702B080BD000055
:1022600081B0009001B0704780B582B0019043F614
:102270001441C4F201014FF4003008600198006875
:10228000806800F480510020B0EB113F19D0FFE7C7
:1022900001980068C06800F480710020B0EB112F35
:1022A0000ED0FFE701980068C06860F4C07020F4A9
:1022B000807001990968C8600198FFF7D1FFFFE7B6
:1022C000FFE701980068806800F400510020B0EB3F
:1022D000513F19D0FFE701980068C06800F4007111
:1022E0000020B0EB512F0ED0FFE701980068C068C6
:1022F00060F4207020F4007001990968C8600198AA
:10230000FFF77EFFFFE7FFE701990120487702B062
:1023100080BD000081B0009001B0704780B588B0EA
:1023200007900798006840680690079800688068E2
:1023300005909DF8140000F040010020B0EB911FC3
:1023400011D1FFE70598C00768B1FFE79DF81800B5
:1023500000F040010020B0EB911F04D0FFE7079888
:10236000016C8847F0E09DF8140000F002010020A5
:10237000B0EB510F0BD0FFE79DF818100020B0EB29
:10238000D11F04D0FFE70798416C8847DCE09DF837
:10239000140000F020010020B0EB511F10D1FFE726
:1023A0009DF8140000F040010020B0EB911F07D110
:1023B000FFE79DF81500C007002800F0C580FFE783
:1023C0009DF8180000F020010020B0EB511F00F034
:1023D000BB80FFE79DF8140000F040010020B0EB47
:1023E000911F28D0FFE7079890F85100032813D0D9
:1023F000FFE70799486D40F004004865FFE70020BB
:10240000049007980068C068049007980068806886
:1024100004900498FFE70DE0FFE700200390079881
:102420000068C0680390079800688068039003986C
:10243000FFE789E0FFE79DF8140000F0200100208D
:10244000B0EB511F15D0FFE70799486D40F0010030
:102450004865FFE7002002900798006880680290B6
:1024600007980168086820F0400008600298FFE7BC
:10247000FFE79DF81500C00778B1FFE70799486DA1
:1024800040F008004865FFE70020019007980068C9
:10249000806801900198FFE7FFE70798406D0028EA
:1024A00051D0FFE707980168486820F0E0004860D5
:1024B0000799012081F85100069800F002000228D7
:1024C00005D0FFE79DF81800C007B8B3FFE70798ED
:1024D0000168486820F0030048600798C06CA0B10C
:1024E000FFE70798C16C44F62950C0F60000086564
:1024F0000798C06CFEF7A0FB30B1FFE70799486D65
:1025000040F040004865FFE7FFE70798806CA0B106
:10251000FFE70798816C44F62950C0F60000086573
:102520000798806CFEF788FB30B1FFE70799486D8C
:1025300040F040004865FFE7FFE703E00798FFF73A
:10254000E9FEFFE7FFE7FFE708B080BD80B584B094
:102550000290029820B9FFE701208DF80F0071E08A
:102560000298406A60B9FFE702984068B0F5827F40
:1025700001D1FFE703E002990020C861FFE705E011
:1025800002990020086102994861FFE70299002042
:102590008862029890F8510040B9FFE70299002044
:1025A00081F85000029800F051F8FFE702990220EC
:1025B00081F8510002980168086820F04000086026
:1025C000029A019211685068D2F808C0D36800F4EA
:1025D00082700CF4044C604403F4006318441369E3
:1025E00003F002031844536903F00103184493698C
:1025F00003F400731844D36903F038031844136AD2
:1026000003F080031843926A02F4005210430860FA
:10261000029A508B00F004001168526A02F0100216
:102620001044486002980168C86920F40060C861DD
:10263000029900204865029A012182F851108DF814
:102640000F00FFE79DF80F0004B080BD80B5A0B07B
:102650001F9000201E901D901C901B901A901F9898
:10266000006843F20001C4F20101884267D1FFE72C
:10267000FFE70020199043F64400C4F2020001680D
:1026800041F480510160006800F48050199019985D
:10269000FFE7FFE70020189043F63000C4F2020085
:1026A000016841F001010160006800F0010018902C
:1026B0001898FFE7FFE70020179043F63000C4F2B8
:1026C0000200016841F002010160006800F00200B0
:1026D00017901798FFE780201A9002200B901B900C
:1026E00000200F901C9003200C901D9005200D9051
:1026F0001E900020C4F202001AA90E91FEF78AFD76
:10270000DDF82CC00C9A0D980E990F9B4FF0180E07
:10271000CDF868E0CDF86CC01C931D921E9040F27D
:102720000040C4F20200FEF775FD0F9A23201090BE
:102730000721FFF717F81098FFF70AF886E11F98AE
:10274000006843F20041C4F20101884240F09780E2
:10275000FFE7FFE70020169043F64400C4F20200B2
:10276000016841F400510160006800F400501690C7
:102770001698FFE7FFE70020159043F63000C4F2FB
:102780000200016841F010010160006800F01000D3
:1027900015901598FFE747F210001A9002201B9041
:1027A000002009901C9003201D9005201E9041F2EE
:1027B0000000C4F202001AA9FEF72CFD099940F2AC
:1027C0002000C2F200000A9046F21042C4F2020257
:1027D00002604FF0006242608160C1604FF480622D
:1027E0000261416181614FF48072C2614FF4003235
:1027F00002624162FEF7D2FB18B1FFE7FEF7EAF989
:10280000FFE7FFE71F9840F22001C2F20001C16418
:102810001F988863FFE740F28000C2F20000089032
:1028200046F22841C4F2020101604FF000614160AC
:10283000402181600021C1604FF4806202614161EA
:102840008161C16101624162FEF7A8FB18B1FFE737
:10285000FEF7C0F9FFE7FFE71F9840F28001C2F2E0
:10286000000181641F988863FFE7542007900121CD
:102870000022FEF777FF0798FEF76AFFE5E01F9852
:10288000006845F20001C4F20101884240F09380E3
:10289000FFE7FFE70020149043F64400C4F2020073
:1028A000016841F480110160006800F48010149008
:1028B0001498FFE7FFE70020139043F63000C4F2BE
:1028C0000200016841F020010160006800F0200072
:1028D00013901398FFE74FF460701A9002201B903A
:1028E000002005901C9003201D9005201E9041F2B1
:1028F0000040C4F202001AA9FEF78CFC059940F2D0
:10290000E000C2F20000069046F28842C4F20202E1
:1029100002604FF0606242608160C1604FF480628B
:10292000026141618161C16101624162FEF736FB72
:1029300018B1FFE7FEF74EF9FFE7FFE71F9840F2F7
:10294000E001C2F20001C1641F988863FFE740F212
:102950004010C2F20000049046F27041C4F202013D
:1029600001604FF080614160402181600021C160C1
:102970004FF48062026141618161C1610162416223
:10298000FEF70CFB18B1FFE7FEF724F9FFE7FFE7BE
:102990001F9840F24011C2F2000181641F988863C1
:1029A000FFE75520039007210022FEF7DBFE039886
:1029B000FEF7CEFE48E01F98006845F20041C4F2E1
:1029C000010188423FD1FFE7FFE70020129043F664
:1029D0004400C4F20200016841F400110160006883
:1029E00000F4001012901298FFE7FFE7002011900A
:1029F00043F63000C4F20200016841F0400101607A
:102A0000006800F0400011901198FFE74FF4E0409B
:102A10001A9002201B90002001901C9003201D9012
:102A200005201E9041F60000C4F202001AA9FEF72C
:102A3000F1FB019A562002900721FEF793FE0298BF
:102A4000FEF786FEFFE7FFE7FFE7FFE720B080BD68
:102A500080B584B002900191ADF80220029890F800
:102A60005100012804D0FFE702208DF80F00B7E0E5
:102A700002988068A0B9FFE702984068B0F5827FAD
:102A80000ED1FFE70299042081F851000298019AC3
:102A9000BDF80230114600F091FA8DF80F009FE06A
:102AA000019820B1FFE7BDF8020020B9FFE701203F
:102AB0008DF80F0094E0FFE7029890F8500001288D
:102AC00004D1FFE702208DF80F0089E00299012070
:102AD00081F85000FFE7FFE70299042081F85100D8
:102AE0000299002048650199029A9163BDF802108D
:102AF000029A9187BDF80210029AD1870299086460
:102B000002994864029988860299C886029880686A
:102B1000B0F5004F0DD1FFE702980168086820F07A
:102B20004000086002980168086820F4804008604E
:102B3000FFE70298C16C44F67D50C0F600000864BF
:102B40000298C16C44F6AD50C0F60000C86302980C
:102B5000C16C44F64950C0F60000C8640298C16CCC
:102B600000200865029B19689A6BD86C0C31DB8FCA
:102B7000FEF7CCFA78B1FFE70299486D40F01000FB
:102B80004865FFE70299002081F85000FFE7012027
:102B90008DF80F0024E002980068006800F0400003
:102BA000402807D0FFE702980168086840F040001D
:102BB0000860FFE7FFE70299002081F85000FFE777
:102BC00002980168486840F0200048600298016857
:102BD000486840F00100486000208DF80F00FFE7D2
:102BE0009DF80F0004B080BD81B00090009800688F
:102BF00043F20041C4F20101884207D1FFE740F2ED
:102C00004041C2F2000101200870FFE701B07047A7
:102C100081B0009001B0704780B58CB0DDF838C04D
:102C20000A9009910892ADF81E3001200390FEF73A
:102C300001FD04900A9890F851008DF817000A9849
:102C400040680690BDF81E00ADF81C009DF8170006
:102C5000012812D0FFE70698B0F5827F09D1FFE77F
:102C60000A98806828B9FFE79DF81700042804D067
:102C7000FFE702208DF82F009BE1099838B1FFE7AC
:102C8000089820B1FFE7BDF81E0020B9FFE701203A
:102C90008DF82F008DE1FFE70A9890F85000012889
:102CA00004D1FFE702208DF82F0082E10A9901206C
:102CB00081F85000FFE7FFE70A9890F851000428D8
:102CC00005D0FFE70A99052081F85100FFE70A992E
:102CD0000020486508990A9A9163BDF81E100A9A67
:102CE000D187BDF81E100A9A918709990A9A116333
:102CF000BDF81E100A9AD186BDF81E100A9A918658
:102D00000A9908640A9948640A980068006800F003
:102D10004000402807D0FFE70A980168086840F0A3
:102D200040000860FFE70A98C068B0F5006F40F007
:102D30008180FFE70A98406828B1FFE7BDF81C00D2
:102D400001280ED1FFE70A980168006B0088C8606F
:102D50000A99086B023008630A99C88E0138C88640
:102D6000FFE7FFE70A98C18E0120019039B9FFE71C
:102D70000A98C08F002818BF01200190FFE7019832
:102D8000C007002855D0FFE70A98006880688007D0
:102D9000002818D5FFE70A98C08EA0B1FFE7039876
:102DA000012810D1FFE70A980168006B0088C8600D
:102DB0000A99086B023008630A99C88E0138C886E0
:102DC00000200390FFE70A9800688068C007A8B158
:102DD000FFE70A98C08F88B1FFE70A980068C068CB
:102DE0000A99896B08800A99886B023088630A996E
:102DF000C88F0138C88701200390FFE7FEF71AFC4F
:102E00000499401A0E99884212D3FFE70E980130B8
:102E100070B1FFE70A99012081F85100FFE70A9994
:102E2000002081F85000FFE703208DF82F00C0E05C
:102E300098E782E00A98406828B1FFE7BDF81C00D7
:102E400001280ED1FFE70A980168006B007808732B
:102E50000A99086B013008630A99C88E0138C88640
:102E6000FFE7FFE70A98C18E0120009039B9FFE71C
:102E70000A98C08F002818BF01200090FFE7009833
:102E8000C007002858D0FFE70A98006880688007CC
:102E9000002818D5FFE70A98C08EA0B1FFE7039875
:102EA000012810D1FFE70A980168006B00780873C9
:102EB0000A99086B013008630A99C88E0138C886E0
:102EC00000200390FFE70A9800688068C007A8B157
:102ED000FFE70A98C08F88B1FFE70A980068C068CA
:102EE0000A99896B08700A99886B013088630A997E
:102EF000C88F0138C88701200390FFE7FEF79AFBCF
:102F00000499401A0E99884204D3FFE70E980130C5
:102F100018B9FFE70E9870B9FFE70A99012081F808
:102F20005100FFE70A99002081F85000FFE70320D5
:102F30008DF82F003DE095E7FFE70A980E99049A77
:102F400002F03CF868B1FFE70A9920204865FFE7E6
:102F50000A99002081F85000FFE701208DF82F002A
:102F600027E00A98806870B9FFE7FFE70020029029
:102F70000A980068C06802900A9800688068029009
:102F80000298FFE7FFE70A99012081F85100FFE767
:102F90000A99002081F85000FFE70A98406D20B19F
:102FA000FFE701208DF82F0003E000208DF82F00AF
:102FB000FFE79DF82F000CB080BD000080B588B001
:102FC000069005910492ADF80E30069890F85100E5
:102FD0008DF807000698406802909DF807000128C8
:102FE00012D0FFE70298B0F5827F09D1FFE706987B
:102FF000806828B9FFE79DF80700042804D0FFE7A0
:1030000002208DF81F00DFE0059838B1FFE7049833
:1030100020B1FFE7BDF80E0020B9FFE701208DF8D1
:103020001F00D1E0FFE7069890F85000012804D176
:10303000FFE702208DF81F00C6E00699012081F805
:103040005000FFE7FFE7069890F85100042805D0EC
:10305000FFE70699052081F85100FFE70699002057
:1030600048650599069A1163BDF80E10069A918677
:10307000BDF80E10069AD1860499069A9163BDF8A0
:103080000E10069A9187BDF80E10069AD187069900
:10309000086406994864069890F8510004280FD1F6
:1030A000FFE70698C16C44F67D50C0F60000086446
:1030B0000698C16C44F6AD50C0F60000C8630EE03F
:1030C0000698C16C44F69550C0F600000864069856
:1030D000C16C44F65160C0F60000C863FFE7069873
:1030E000C16C44F64950C0F60000C8640698C16C33
:1030F00000200865069B19689A6BD86C0C31DB8F31
:10310000FEF704F878B1FFE70699486D40F010002B
:103110004865FFE70699002081F85000FFE701208D
:103120008DF81F0050E006980168486840F00100E3
:1031300048600698816C002008640699896CC86311
:103140000699896CC8640699896C0865069B1A689B
:10315000196B986C0C32DB8EFDF7D8FF78B1FFE766
:103160000699486D40F010004865FFE70699002079
:1031700081F85000FFE701208DF81F0024E0069839
:103180000068006800F04000402807D0FFE706987C
:103190000168086840F040000860FFE7FFE7069913
:1031A000002081F85000FFE706980168486840F069
:1031B0002000486006980168486840F002004860B6
:1031C00000208DF81F00FFE79DF81F0008B080BDAC
:1031D00081B0009001B0704781B0009001B070479D
:1031E00080B582B00190019801F0E4FF02B080BD8B
:1031F00081B0009001B0704781B0009001B070477D
:1032000085B003900291FFE7039890F83C000128F5
:1032100004D1FFE702208DF813007EE0039901201E
:1032200081F83C00FFE7FFE70399022081F83D00A9
:1032300003980068406801900398006880680090D7
:10324000019820F0700001900298016801980843ED
:10325000019001980399096848600398006800216B
:10326000C4F2010188423CD0FFE703980068B0F146
:10327000804F36D0FFE70398006840F20041C4F267
:10328000000188422DD0FFE70398006840F6000156
:10329000C4F20001884224D0FFE70398006840F69A
:1032A0000041C4F2000188421BD0FFE70398006888
:1032B00040F20041C4F20101884212D0FFE70398B6
:1032C000006844F20001C4F20101884209D0FFE71E
:1032D0000398006841F60001C4F2000188420ED153
:1032E000FFE7009820F08000009002984168009865
:1032F000084300900098039909688860FFE70399E4
:10330000012081F83D00FFE70399002081F83C008F
:10331000FFE700208DF81300FFE79DF8130005B0CC
:103320007047000080B582B00090009820B9FFE798
:1033300001208DF807003FE0009890F83D0040B96B
:10334000FFE70099002081F83C00009800F038F871
:10335000FFE70099022081F83D00009951F8040B25
:1033600001F0C8FF0099012081F84600FFE70099AD
:10337000012081F83E00009981F83F00009981F812
:103380004000009981F84100FFE7FFE70099012024
:1033900081F84200009981F84300009981F84400C7
:1033A000009981F84500FFE70099012081F83D0070
:1033B00000208DF80700FFE79DF8070002B080BDF0
:1033C00080B58AB00990002008900790069005907B
:1033D000049009980068B0F1804F12D1FFE7FFE731
:1033E0000020039043F64000C4F20200016841F05F
:1033F00001010160006800F0010003900398FFE7FD
:1034000057E00998006840F20041C4F20001884288
:1034100032D1FFE7FFE70020029043F64000C4F2FC
:103420000200016841F002010160006800F0020042
:1034300002900298FFE7FFE70020019043F630007A
:10344000C4F20200016841F008010160006800F068
:10345000080001900198FFE70420049002200590E5
:10346000002106910791089040F60040C4F2020046
:1034700004A9FDF7CFFE1BE00998006844F20001A3
:10348000C4F20101884212D1FFE7FFE7002000905B
:1034900043F64400C4F20200016841F48031016047
:1034A000006800F4803000900098FFE7FFE7FFE736
:1034B000FFE70AB080BD000081B0009001B0704706
:1034C00080B584B0039003980068C06802900398A8
:1034D0000068006901909DF804008007002824D549
:1034E000FFE79DF80800800700281DD5FFE7039837
:1034F00001686FF0020008610399012008770398C2
:1035000000688069800720B1FFE70398FFF7D4FFC8
:1035100006E0039800F0BCF9039800F003FBFFE716
:10352000039900200877FFE7FFE79DF804004007B4
:10353000002825D5FFE79DF80800400700281ED584
:10354000FFE7039801686FF0040008610399022007
:10355000087703980068806910F4407F04D0FFE783
:103560000398FFF7A9FF06E0039800F091F903988C
:1035700000F0D8FAFFE7039900200877FFE7FFE79C
:103580009DF804000007002824D5FFE79DF80800F7
:10359000000700281DD5FFE7039801686FF00800B9
:1035A000086103990420087703980068C0698007C0
:1035B00020B1FFE70398FFF77FFF06E0039800F0D4
:1035C00067F9039800F0AEFAFFE703990020087747
:1035D000FFE7FFE79DF80400C006002825D5FFE7B8
:1035E0009DF80800C00600281ED5FFE70398016873
:1035F0006FF01000086103990820087703980068AD
:10360000C06910F4407F04D0FFE70398FFF754FF30
:1036100006E0039800F03CF9039800F083FAFFE716
:10362000039900200877FFE7FFE79DF80400C00733
:1036300078B1FFE79DF80800C00748B1FFE703989D
:1036400001686FF001000861039800F055FBFFE787
:10365000FFE79DF804000006002810D5FFE79DF85D
:1036600008000006002809D5FFE7039801686FF0FD
:10367000800008610398FFF7BBFDFFE7FFE79DF8B7
:1036800004004006002810D5FFE79DF8080040061A
:10369000002809D5FFE7039801686FF04000086132
:1036A000039800F079FBFFE7FFE79DF80400800630
:1036B000002810D5FFE79DF808008006002809D5EE
:1036C000FFE7039801686FF0200008610398FFF797
:1036D00093FDFFE7FFE704B080BD000080B58AB02E
:1036E0000990002008900790069005900490099892
:1036F0000068B0F1804F20D1FFE7FFE70020039082
:1037000043F63000C4F20200016841F0010101609B
:10371000006800F0010003900398FFE70220049086
:103720000590002006900790012008900020C4F228
:10373000020004A9FDF76EFD56E00998006840F20A
:103740000041C4F20001884221D1FFE7FFE70020D9
:10375000029043F63000C4F20200016841F0040117
:103760000160006800F0040002900298FFE740202A
:10377000049002200590002106910791089040F6E0
:103780000000C4F2020004A9FDF744FD2BE00998F3
:10379000006844F20001C4F20101884222D1FFE72F
:1037A000FFE70020019043F63000C4F202000168F8
:1037B00041F010010160006800F0100001900198D4
:1037C000FFE720200490022005900020069007903B
:1037D0000320089041F20000C4F2020004A9FDF7A2
:1037E00019FDFFE7FFE7FFE70AB080BD80B586B0AF
:1037F00004900391029200208DF80700FFE70498DF
:1038000090F83C00012804D1FFE702208DF8170052
:103810003AE00499012081F83C00FFE7FFE70298B5
:1038200000900C2821D80099DFE801F0071F1F1F26
:103830000D1F1F1F131F1F1F1900049800680399F5
:1038400001F066FE15E004980068039901F0D6FEC9
:103850000FE004980068039901F04AFF09E004981A
:103860000068039901F0BEFF03E001208DF8070016
:10387000FFE7FFE70499002081F83C00FFE79DF88F
:1038800007008DF81700FFE79DF8170006B080BD10
:1038900081B0009001B0704780B582B00090009870
:1038A00020B9FFE701208DF807003FE0009890F86D
:1038B0003D0040B9FFE70099002081F83C000098E6
:1038C00000F038F8FFE70099022081F83D000099E8
:1038D00051F8040B01F00EFD0099012081F846001B
:1038E000FFE70099012081F83E00009981F83F0030
:1038F000009981F84000009981F84100FFE7FFE757
:103900000099012081F84200009981F84300009954
:1039100081F84400009981F84500FFE700990120F3
:1039200081F83D0000208DF80700FFE79DF80700B3
:1039300002B080BD81B0009001B0704780B586B004
:1039400004900391029200208DF80700FFE704988D
:1039500090F83C00012804D1FFE702208DF8170001
:1039600089E00499012081F83C00FFE7FFE7029815
:1039700000900C2800F270800099DFE801F0076DDC
:103980006D6D206D6D6D3A6D6D6D5300049800681E
:10399000039901F0BDFD04980168886940F00800B2
:1039A000886104980168886920F0040088610398A0
:1039B00002690498016888691043886150E004989E
:1039C0000068039901F01AFE04980168886940F4C0
:1039D0000060886104980168886920F480608861CB
:1039E0000398026904980168886940EA02208861A6
:1039F00036E004980068039901F07AFE04980168A3
:103A0000C86940F00800C86104980168C86920F0DE
:103A10000400C8610398026904980168C8691043EA
:103A2000C8611DE004980068039901F0DBFE04986A
:103A30000168C86940F40060C86104980168C869F9
:103A400020F48060C8610398026904980168C8691D
:103A500040EA0220C86103E001208DF80700FFE77B
:103A6000FFE70499002081F83C00FFE79DF807007C
:103A70008DF81700FFE79DF8170006B080BD000025
:103A800080B582B00090009820B9FFE701208DF842
:103A900007003FE0009890F83D0040B9FFE700992B
:103AA000002081F83C00009800F038F8FFE700990A
:103AB000022081F83D00009951F8040B01F01AFC36
:103AC0000099012081F84600FFE70099012081F864
:103AD0003E00009981F83F00009981F8400000996C
:103AE00081F84100FFE7FFE70099012081F84200DB
:103AF000009981F84300009981F84400009981F809
:103B00004500FFE70099012081F83D0000208DF875
:103B10000700FFE79DF8070002B080BD81B000906C
:103B200001B0704781B0009001B0704780B58CB093
:103B30000A900991099828B9FFE70A9890F83E0081
:103B400007901CE00998042805D1FFE70A9890F82F
:103B50003F00069010E00998082805D1FFE70A9871
:103B600090F84000059004E00A9890F84100059014
:103B7000FFE705980690FFE706980790FFE707988C
:103B8000012804D0FFE701208DF82F00AFE009984D
:103B900028B9FFE70A99022081F83E001EE0099843
:103BA000042806D1FFE70A99022081F83F0004901B
:103BB00012E00998082806D1FFE70A99022081F847
:103BC0004000039005E00A99022081F8410003902B
:103BD000FFE703980490FFE70498FFE70A9800685E
:103BE00009990122019201F05DFC01980A99096886
:103BF0000022C4F20102914202900CD0FFE70A9821
:103C000000684FF60041CBF6FE710844B0FA80F030
:103C100040090290FFE70298C00738B1FFE70A9811
:103C20000168486C40F400404864FFE70A98006867
:103C30000021C4F2010188423CD0FFE70A980068E5
:103C4000B0F1804F36D0FFE70A98006840F200419B
:103C5000C4F2000188422DD0FFE70A98006840F6C0
:103C60000001C4F20001884224D0FFE70A980068EE
:103C700040F60041C4F2000188421BD0FFE70A98D9
:103C8000006840F20041C4F20101884212D0FFE70F
:103C90000A98006844F20001C4F20101884209D088
:103CA000FFE70A98006841F60001C4F2000188426B
:103CB00012D1FFE70A980068806800F007000890BA
:103CC0000898062807D0FFE70A980168086840F0BE
:103CD00001000860FFE706E00A980168086840F004
:103CE00001000860FFE700208DF82F00FFE79DF836
:103CF0002F000CB080BD000081B0009001B0704773
:103D000080B584B002900191FFE7029890F83C00E2
:103D1000012804D1FFE702208DF80F0037E0029957
:103D2000012081F83C00FFE7FFE70299022081F8BB
:103D30003D000298019901F0A7FD70B1FFE70299DB
:103D4000012081F83D00FFE70299002081F83C0046
:103D5000FFE701208DF80F0019E002980168C8689C
:103D600020F04000C86002980168C86820F48040D4
:103D7000C8600299012081F83D00FFE70299002008
:103D800081F83C00FFE700208DF80F00FFE79DF869
:103D90000F0004B080BD000081B0009001B07047FA
:103DA00080B582B00090009820B9FFE701208DF81F
:103DB000070040E00098806908B1FFE700E0FFE7F6
:103DC000009890F8410040B9FFE70099002081F881
:103DD0004000009800F034F8FFE70099242081F8B3
:103DE000410000980168C86820F40050C86000983D
:103DF00001F07AFE00980168086920F4904008619B
:103E000000980168486920F02A004861009801681C
:103E1000C86840F40050C860009900204864009AC7
:103E2000202182F84110009A82F8421000994863DC
:103E30008DF80700FFE79DF8070002B080BD000085
:103E400080B588B0079000200690059004900390FC
:103E500002900798006847F60041C4F200018842CA
:103E600033D1FFE7FFE70020019043F64000C4F2A2
:103E70000200016841F000410160006800F000406C
:103E800001900198FFE7FFE70020009043F6300023
:103E9000C4F20200016841F010010160006800F006
:103EA000100000900098FFE7032002900221039188
:103EB0000021049105900820069041F20000C4F210
:103EC000020002A9FDF7A6F9FFE708B080BD0000D7
:103ED00080B58AB008900791ADF81A2005930020AC
:103EE0000290089890F84100202840F08180FFE778
:103EF000079820B1FFE7BDF81A0020B9FFE70120BD
:103F00008DF8270078E0089900204864089921205E
:103F100081F84100FDF78EFB0290BDF81A00089968
:103F20008884BDF81A000899C88408988068B0F59C
:103F3000805F09D1FFE70898006928B9FFE70020F2
:103F400004900798039004E00798049000200390E1
:103F5000FFE7FFE70898C08C78B3FFE70898029B5B
:103F600005996A4611608021002201F05BFE40B194
:103F7000FFE70899202081F8410003208DF82700F1
:103F80003AE0049858B9FFE7039800886FF35F2080
:103F900008990968486003980230039008E0049883
:103FA0000078089909684860049801300490FFE798
:103FB0000899C88C0138C884CCE70898029B0599F9
:103FC0006A4611604021002201F02CFE40B1FFE75B
:103FD0000899202081F8410003208DF827000BE08C
:103FE0000899202081F8410000208DF8270003E087
:103FF00002208DF82700FFE79DF827000AB080BD5A
:10400000FFE7FEE70000000080B58EB08DED0D0AE1
:10401000CDED0C0A8DED0B1A9DED0D0A9DED0C1AE0
:104020008DED031A30EE410A10EE100AFCF745FB45
:1040300041EC100B51EC100B9FED470B53EC102B88
:10404000FCF7EBF99DED031A41EC100B8DED040B21
:104050009DED0B0A30EE410A10EE100AFCF72DFB25
:104060009DED040B41EC110B53EC112B51EC100B9B
:10407000FCF745FA41EC100B51EC100BFCF730FB50
:1040800009900998FCF719FB41EC100B8DED060B1C
:1040900002F0BAFC9FED321B53EC112B51EC100BCC
:1040A000FCF714F99DED060B41EC110B53EC112BB1
:1040B00051EC100BFCF792FA50B9FFE70998FCF7A6
:1040C000FCFA41EC100B02F013FC8DED000B09E043
:1040D0000998FCF7F2FA41EC100B02F095FC8DED1B
:1040E000000BFFE79DED000B51EC100BFCF7F8FA0D
:1040F00009900998FCF7E1FA41EC100B9FED1A1BAF
:1041000053EC112B51EC100BFCF783FA18B9FFE7B5
:1041100000200990FFE70998FCF7CFFA41EC100B5B
:104120009FED0D1B53EC112B51EC100BFCF756FAC5
:1041300030B9FFE74FF20000C4F27F500990FFE76B
:104140009DED090ABDEEC00A10EE100AADF82A0076
:10415000BDF82A000EB080BD0000000000FEAF4098
:10416000000000000000E03F000000000000000030
:1041700010B58CB08DF82F008DF82E10ADF82C20D6
:10418000BDF82C006FF31F30ADF82C00BDF82C00EB
:104190000001ADF82C00BDF82C00ADF82000002087
:1041A00006908DF828009DF82F009DF82E100843EA
:1041B0008DF829009DF821008DF82A009DF8200037
:1041C0008DF82B00BDF82C109DF820209DF8213093
:1041D00047F24F50C0F6000002F07AFB069A41F613
:1041E0000000C4F20200049004210391FDF70AFAD2
:1041F000039B6946FF20086040F2C820C2F200001D
:104200000AA909AAFEF708FD039904980122FDF7FF
:10421000F9F99DF8290040F2180CC2F2000CCDF813
:1042200014C08CF800009DF82A008CF801009DF85D
:104230002B008CF802009DF825109DF826209DF893
:1042400027309CF800009CF801E09CF80240EC4606
:10425000CCF80840CCF804E0CCF8000047F27D50E0
:10426000C0F6000002F034FB059A06989DF827106E
:1042700092789142079019D1FFE79DF8261040F2FD
:104280001800C2F2000042780020914207900DD140
:10429000FFE79DF8250040F21801C2F200010978FD
:1042A000401AB0FA80F040090790FFE70799012013
:1042B00088430CB010BD000010B58CB08DF82F00F5
:1042C0008DF82E10ADF82C20BDF82C00ADF8200094
:1042D000002006908DF828009DF82F009DF82E10E4
:1042E00008438DF829009DF821008DF82A009DF8DB
:1042F00020008DF82B00BDF82C109DF820209DF893
:10430000213047F24F50C0F6000002F0E1FA069A61
:1043100041F60000C4F20200049004210391FDF76D
:1043200071F9039B6946FF20086040F2C820C2F281
:1043300000000AA909AAFEF76FFC0399049801225C
:10434000FDF760F99DF8290040F21B0CC2F2000C49
:10435000CDF814C08CF800009DF82A008CF80100FC
:104360009DF82B008CF802009DF825109DF8262062
:104370009DF827309CF800009CF801E09CF8024072
:10438000EC46CCF80840CCF804E0CCF8000047F24A
:104390007D50C0F6000002F09BFA059A06989DF841
:1043A000271092789142079019D1FFE79DF82610C7
:1043B00040F21B00C2F200004278002091420790B8
:1043C0000DD1FFE79DF8250040F21B01C2F200016C
:1043D0000978401AB0FA80F040090790FFE7079982
:1043E000012088430CB010BD80B58AB0FFE70020E3
:1043F000099043F63000C4F20200016841F48001E4
:104400000160006800F4800009900998FFE73820F7
:1044100001900C21069100220792FDF7A3F9019863
:10442000FDF796F90699079A39200290FDF79AF957
:104430000298FDF78DF90699079A3B200390FDF746
:1044400091F90398FDF784F90699079A3C200490A6
:10445000FDF788F90498FDF77BF90699079A44203F
:104460000590FDF77FF90598FDF772F90699079A0F
:1044700045200890FDF776F90898FDF769F90AB02C
:1044800080BD000080B5A2B00020219020901F9038
:104490001E901D90FFE700201C9043F63000C4F2F0
:1044A0000200016841F010010160006800F0100096
:1044B0001C901C98FFE7FFE700201B9043F630009C
:1044C000C4F20200016841F004010160006800F0DC
:1044D00004001B901B98FFE7FFE700201A9043F6AB
:1044E0003000C4F20200016841F020010160006860
:1044F00000F020001A901A98FFE7FFE700201990BB
:1045000043F63000C4F20200016841F0800101600E
:10451000006800F0800019901998FFE7FFE700207D
:10452000189043F63000C4F20200016841F0010126
:104530000160006800F0010018901898FFE7FFE79D
:104540000020179043F63000C4F20200016841F0E9
:1045500008010160006800F0080017901798FFE755
:10456000FFE70020169043F63000C4F20200016815
:1045700041F040010160006800F04000169016987C
:10458000FFE7FFE70020159043F63000C4F2020079
:10459000016841F002010160006800F0020015901E
:1045A0001598FFE7102000901D90012010901E909C
:1045B000002014901F9041F60000C4F20200039006
:1045C0001DA91191FCF726FE00990398149AFDF796
:1045D00019F8109A119914984FF4004307931D93FA
:1045E0001E921F900020C4F202000190FCF712FE00
:1045F00001980799149AFDF705F8109A11991498E3
:1046000042F2080302931D931E921F9040F6004051
:10461000C4F202000890FCF7FDFD02990898109A78
:10462000FCF7F0FF109A11991498042304931D933A
:104630001E921F9040F20040C4F202001290FCF75C
:10464000E9FD0499109A1298FCF7DCFF0398109B7F
:104650001199149A4FF0280CCDF874C01E931F9234
:10466000FCF7D8FD0398149A0821FCF7CBFF0398B8
:10467000109A2021FCF7C6FF0398DDF810C0109BAC
:104680001199149ACDF874C01E931F92FCF7C2FDC5
:1046900003980499109AFCF7B5FF0898109B11999C
:1046A000149A4FF4006CCDF834C0CDF874C01E934A
:1046B0001F92FCF7AFFD08980D99149AFCF7A2FF22
:1046C000109B11991298149A4FF4804CCDF814C095
:1046D000CDF874C01E931F92FCF79CFD05991298AB
:1046E000149AFCF78FFF109A119914984FF40073E5
:1046F00006931D931E921F9041F20000C4F2020027
:104700000A90FCF787FD06990A98109AFCF77AFF41
:10471000DDF81CC0109B11991298149ACDF874C042
:104720001E931F92FCF776FD0799109A1298FCF7DA
:1047300069FF0A98109B1199149A4FF4806CCDF878
:1047400024C0CDF874C01E931F92FCF763FD099935
:104750000A98109AFCF756FF0898109B1199149A22
:104760004FF4805CCDF82CC0CDF874C01E931F921E
:10477000FCF750FD08980B99109AFCF743FF089836
:10478000DDF824C0109B1199149ACDF874C01E93C3
:104790001F92FCF73FFD08980999109AFCF732FF29
:1047A0000A98DDF834C0109B1199149ACDF874C0A2
:1047B0001E931F92FCF72EFD0A98109A0221FCF717
:1047C00021FF0B9B109A119914981D931E921F9014
:1047D00041F20040C4F202000C90FCF71BFD0B9963
:1047E0000C98109AFCF70EFF0C98DDF834C0109B63
:1047F0001199149ACDF874C01E931F92FCF70AFD0C
:104800000C980D99109AFCF7FDFE109B11991298C7
:10481000149A4FF0400CCDF838C0CDF874C01E93F8
:104820001F92FCF7F7FC0E991298149AFCF7EAFE17
:10483000109B11991298149A4FF0800CCDF83CC03F
:10484000CDF874C01E931F92FCF7E4FC0F991298E8
:10485000149AFCF7D7FE109B11991298149A4FF4F2
:10486000807CCDF84CC0CDF874C01E931F92FCF72D
:10487000D1FC12981399149AFCF7C4FE22B080BDA3
:1048800080B582B040F2C010C2F20000019043F245
:104890000001C4F2010101604FF482714160002106
:1048A0008160C16002220261012242614FF4007204
:1048B00082611822C2610162416281620A21C16281
:1048C000FDF744FE18B1FFE7FCF784F9FFE702B0FB
:1048D00080BD000080B582B040F21820C2F2000016
:1048E000019043F20041C4F20101016000214160E6
:1048F0008160C16002220261416181610162102216
:10490000426281620A21C162FDF720FE18B1FFE711
:10491000FCF760F9FFE702B080BD000080B582B00F
:1049200040F27020C2F20000019045F20001C4F292
:10493000010101604FF48271416000218160C1601A
:10494000016141614FF4007282611822C26101620B
:10495000416281620A21C162FDF7F8FD18B1FFE7EB
:10496000FCF738F9FFE702B080BD000080B582B0E7
:1049700040F2C820C2F20000019045F20041C4F2AA
:10498000010101604FF48271416000218160C160CA
:10499000016141614FF4007282611822C2610162BB
:1049A000416281620A21C162FDF7D0FD18B1FFE7C3
:1049B000FCF710F9FFE702B080BD000080B58CB0B5
:1049C000002102910B910A9109910891079106919A
:1049D00005910491039140F22030C2F200004FF0A3
:1049E000804202604160816040F20802C2F200022F
:1049F0001268013AC26001618161FEF793FC18B14F
:104A0000FFE7FCF7E7F8FFE740F22030C2F20000D2
:104A1000FEF742FF18B1FFE7FCF7DCF8FFE7502094
:104A20000A9000200B9040F22030C2F200000AA948
:104A3000FEF7E6FB18B1FFE7FCF7CCF8FFE76020D4
:104A400003900120049000200590079040F2203050
:104A5000C2F2000003A90422FEF770FF18B1FFE7BD
:104A6000FCF7B8F8FFE740F22030C2F200000190F6
:104A70000268916921F400619161FEF72FFE0198AF
:104A80000421FFF753F80CB080BD000080B590B052
:104A9000002101910F910E910D910C910B910A91B2
:104AA0000991089107910691059104910391029152
:104AB00040F26830C2F2000040F20042C4F200024C
:104AC0000260416081607F22C26001618161FEF706
:104AD00029FC18B1FFE7FCF77DF8FFE740F26830EA
:104AE000C2F20000FEF7CCFF18B1FFE7FCF772F846
:104AF000FFE704200B9070200C9000200D900E908A
:104B00000F9040F26830C2F200000BA9FFF7F8F8EE
:104B100018B1FFE7FCF75EF8FFE7602002900A207B
:104B2000039000220492069240F26830C2F2000024
:104B300002A9FEF703FF18B1FFE7FCF74BF8FFE708
:104B400040F26830C2F20000FEF7C8FD10B080BD30
:104B500080B58EB0002101910D910C910B910A91BD
:104B60000991089107910691059104910391029191
:104B700040F2B030C2F2000044F20002C4F201027E
:104B80000260416081600122C26001618161FEF7C3
:104B9000C9FB18B1FFE7FCF71DF8FFE740F2B030A2
:104BA000C2F20000FEF778FE18B1FFE7FCF712F83A
:104BB000FFE70620099000200A9040F2B030C2F2D0
:104BC000000009A9FFF79CF818B1FFE7FCF702F80D
:104BD000FFE76020029001200390002204920692D9
:104BE00040F2B030C2F2000002A9FEF7FFFD18B19A
:104BF000FFE7FBF7EFFFFFE740F2B030C2F2000043
:104C00000268916921F008019161FEF767FD0EB01D
:104C100080BD000080B582B040F2F830C2F20000E2
:104C2000019047F60041C4F2000101604FF4E13108
:104C3000416000218160C16001610C22426181619B
:104C4000C161FFF7ADF818B1FFE7FBF7C3FFFFE75E
:104C500002B080BDFFE7FEE7FFE7FEE788B0079000
:104C600006910592079800F0070004900498C0F19F
:104C70000700052803D3FFE70420019004E004980F
:104C8000C0F107000190FFE70198039004980430F9
:104C9000062803D8FFE70020009003E004980338BB
:104CA0000090FFE70098029006980399012202FA0B
:104CB00001F101390840029B984005999A40013A58
:104CC0001140084308B0704780B540F2A010C2F20E
:104CD0000000FDF7C9FA80BD80B540F2A010C2F215
:104CE0000000FDF795FA80BD80B540F2C010C2F219
:104CF0000000FDF713FB80BD80B540F21820C2F222
:104D00000000FDF70BFB80BD80B540F27020C2F2C1
:104D10000000FDF703FB80BD80B540F2C820C2F261
:104D20000000FDF7FBFA80BD80B582B001900198CC
:104D3000806B009000990020C8870099C886009871
:104D4000FDF7E8FA02B080BD80B582B0019001980D
:104D5000806B009000980168486820F0030048606C
:104D60000099486D40F0100048650099012081F8D5
:104D700051000098FDF7CEFA02B080BD80B582B038
:104D800001900198806B00900098FDF741FF02B000
:104D900080BD000080B582B001900198806B0090CA
:104DA0000098FEF719FA02B080BD000080B584B00B
:104DB00003900398806B0290FCF73CFC01900398F1
:104DC0000068006800F48070B0F5807F39D0FFE79C
:104DD00002980168486820F02000486002988068C6
:104DE00068B9FFE702984068B0F5827F07D1FFE716
:104DF00002980168486820F00300486006E00298C5
:104E00000168486820F001004860FFE70298019AB5
:104E1000642100F061F820B1FFE702992020486585
:104E2000FFE702990020C8870299012081F851000C
:104E30000298406D20B1FFE70298FDF76BFA04E09D
:104E4000FFE70298FDF7D0FEFFE704B080BD000049
:104E500080B584B003900398806B0290FCF7EAFB66
:104E6000019003980068006800F48070B0F5807FBE
:104E70002BD0FFE702980168486820F020004860C6
:104E80000298019A642100F099F830B1FFE7029985
:104E9000486D40F020004865FFE7029801684868C7
:104EA00020F00300486002990020C8860299C88754
:104EB0000299012081F851000298406D20B1FFE76E
:104EC0000298FDF727FA04E0FFE70298FEF780F961
:104ED000FFE704B080BD000080B586B00490039168
:104EE000029204984068B0F5827F13D1FFE70498DE
:104EF0008068B0F5004F06D0FFE704988068B0F5F1
:104F0000806F07D1FFE704980168086820F040002F
:104F10000860FFE704984068B0F5827F31D1FFE771
:104F200004988068B0F5806F15D0FFE70498039B64
:104F300002996A4611608021002200F0A5F848B16C
:104F4000FFE70499486D40F02000486503208DF884
:104F500017002FE014E00498039B02996A46116041
:104F60000121002200F090F848B1FFE70499486D54
:104F700040F02000486503208DF817001AE0FFE795
:104F800014E00498039B02996A46116001210022F3
:104F900000F07AF848B1FFE70499486D40F020002E
:104FA000486503208DF8170004E0FFE700208DF826
:104FB0001700FFE79DF8170006B080BD80B586B0EA
:104FC0000490039102920498039B02996A4611602F
:104FD0000221012200F058F848B1FFE70499486D1A
:104FE00040F02000486503208DF8170048E040F2AB
:104FF0000800C2F2000000684AF6AB21CAF6AA21F6
:10500000A0FB011000094DF68361C4F21B31A0FB27
:105010000110800C4FF47A71484301900498406865
:10502000B0F5827F15D1FFE70498039B02996A4689
:1050300011608021002200F027F848B1FFE70499B1
:10504000486D40F02000486503208DF8170017E0F8
:1050500012E0FFE7019808B9FFE70CE0019801387A
:105060000190FFE7049800688068C1B20020B0EBAF
:10507000D11FEFD1FFE7FFE700208DF81700FFE712
:105080009DF8170006B080BD80B58AB0DDF830C04D
:10509000089007918DF81B20059305980190FCF767
:1050A000C9FA024601980C99891A08440390FCF742
:1050B000C1FA0290039840F20801C2F200010968A7
:1050C000C1F3CB3148430490FFE70898006880683B
:1050D00007990840401AB0FA80F040099DF81B106B
:1050E00088425ED0FFE705980130002858D0FFE7DE
:1050F000FCF7A0FA0299401A0399884204D2FFE70C
:105100000398002842D1FFE708980168486820F01A
:10511000E000486008984068B0F5827F13D1FFE74F
:1051200008988068B0F5004F06D0FFE708988068BF
:10513000B0F5806F07D1FFE708980168086820F094
:1051400040000860FFE70898806AB0F5005F0FD163
:10515000FFE7FFE708980168086820F4005008603E
:1051600008980168086840F400500860FFE7FFE70E
:105170000899012081F85100FFE70899002081F883
:105180005000FFE703208DF827000EE0049818B9BF
:10519000FFE700200390FFE7049801380490FFE741
:1051A00093E700208DF82700FFE79DF827000AB05D
:1051B00080BD000080B582B0009000980138B0F149
:1051C000807F03D3FFE70120019019E000980138A8
:1051D0004EF21401CEF2000108604FF0FF300F21B3
:1051E00000F0B0FD4EF21801CEF200010020086080
:1051F0004EF21002CEF20002072111600190FFE78B
:10520000019802B080BD000080B5FCF719FA80BD9E
:1052100080B594B008A83021FBF74DF80020079026
:105220000690059004900390FFE70020029043F65B
:105230004000C4F20200016841F080510160006842
:1052400000F0805002900298FFE7FFE700200190F5
:1052500047F20000C4F200000168012262F38F31BE
:105260000160006800F4404001900198FFE70920C8
:1052700008904FF4A020099001200D9002200E907C
:105280004FF480000F90082010908020119004208F
:105290001290139008A8FCF753FC18B1FFE7FBF736
:1052A00099FCFFE70F200390022004900020059056
:1052B0004FF480510691079003A80121FCF774FA7E
:1052C00018B1FFE7FBF786FCFFE714B080BD0000D4
:1052D0004EF68851CEF20001086840F47000086074
:1052E0007047000080B540F22030C2F20000FEF7A7
:1052F000E7F880BD83B002900191029800680090A9
:1053000002980021C4F20101884225D0FFE70298EB
:10531000B0F1804F20D0FFE7029840F20041C4F284
:105320000001884218D0FFE7029840F60001C4F25D
:105330000001884210D0FFE7029840F60041C4F215
:105340000001884208D0FFE7029840F20041C4F211
:10535000010188420AD1FFE7009820F07000009018
:1053600001984168009808430090FFE702980021E7
:10537000C4F20101884255D0FFE70298B0F1804F96
:1053800050D0FFE7029840F20041C4F20001884289
:1053900048D0FFE7029840F60001C4F200018842BD
:1053A00040D0FFE7029840F60041C4F20001884275
:1053B00038D0FFE7029840F20041C4F20101884270
:1053C00030D0FFE7029844F20001C4F201018842A4
:1053D00028D0FFE7029844F20041C4F2010188425C
:1053E00020D0FFE7029844F60001C4F20101884290
:1053F00018D0FFE7029841F60001C4F2000188428C
:1054000010D0FFE7029841F60041C4F20001884243
:1054100008D0FFE7029842F20001C4F2000188427E
:105420000AD1FFE7009820F4407000900198C1680D
:10543000009808430090FFE7009820F08000019951
:1054400049690843009000980299086001988068B3
:105450000299C86201980068029988620298002146
:10546000C4F20101884208D0FFE7029840F20041EF
:10547000C4F20101884205D1FFE701980069029951
:105480000863FFE702990120486102980069C0079C
:1054900030B1FFE70299086920F001000861FFE7D9
:1054A00003B0704784B0039002910192029800F01B
:1054B0001F01012088400090009A0399086A9043D8
:1054C00008620198029901F01F0100FA01F20399A4
:1054D000086A1043086204B07047000085B0049069
:1054E000039102920193049880680090009820F440
:1054F0007F40009003980299019A41EA02210143FA
:1055000000980843009000980499886005B070479F
:1055100085B0049003910498006A01900499086A88
:1055200020F00100086204984068009004988069A7
:105530000290029820F070000290029820F0030080
:10554000029003980168029808430290019820F0A5
:105550000200019003988168019808430190049823
:105560000021C4F20101884208D0FFE7049840F20C
:105570000041C4F2010188420ED1FFE7019820F0FA
:10558000080001900398C1680198084301900198B0
:1055900020F004000190FFE704980021C4F201010B
:1055A000884208D0FFE7049840F20041C4F20101AC
:1055B000884213D1FFE7009820F480700090009893
:1055C00020F400700090039841690098084300900F
:1055D00003988169009808430090FFE700980499B8
:1055E0004860029804998861039840680499486368
:1055F00001980499086205B07047000085B00490D6
:1056000003910498006A01900499086A20F0100040
:10561000086204984068009004988069029002989B
:1056200020F4E0400290029820F440700290039829
:105630000168029840EA01200290019820F02000C1
:10564000019003988168019840EA01100190049844
:105650000021C4F20101884208D0FFE7049840F21B
:105660000041C4F2010188420FD1FFE7019820F008
:10567000800001900398C168019840EA01100190F0
:10568000019820F040000190FFE704980021C4F247
:105690000101884208D0FFE7049840F20041C4F2BB
:1056A0000101884215D1FFE7009820F48060009046
:1056B000009820F40060009003984169009840EA47
:1056C0008100009003988169009840EA8100009071
:1056D000FFE700980499486002980499886103984C
:1056E00040680499886301980499086205B070477E
:1056F00085B0049003910498006A01900499086AA7
:1057000020F4807008620498406800900498C06992
:105710000290029820F070000290029820F003009E
:10572000029003980168029808430290019820F4BF
:105730000070019003988168019840EA012001906F
:1057400004980021C4F20101884208D0FFE70498C0
:1057500040F20041C4F2010188420FD1FFE70198F5
:1057600020F4006001900398C168019840EA01208C
:105770000190019820F480600190FFE704980021D7
:10578000C4F20101884208D0FFE7049840F20041CA
:10579000C4F20101884215D1FFE7009820F480503F
:1057A0000090009820F40050009003984169009800
:1057B00040EA0110009003988169009840EA0110C6
:1057C0000090FFE700980499486002980499C86126
:1057D000039840680499C86301980499086205B069
:1057E0007047000085B0049003910498006A01900E
:1057F0000499086A20F48050086204984068009078
:105800000498C0690290029820F4E0400290029847
:1058100020F44070029003980168029840EA012049
:105820000290019820F4005001900398816801983B
:1058300040EA0130019004980021C4F2010188423D
:1058400008D0FFE7049840F20041C4F20101884209
:105850000BD1FFE7009820F4804000900398416945
:10586000009840EA81100090FFE700980499486092
:1058700002980499C86103984068049908640198E3
:105880000499086205B0704780B588B0069005910C
:1058900000208DF813000698006880680390039834
:1058A00020F0700003900598416803980843039026
:1058B000039820F0070003900598016803980843B7
:1058C00003900398069909688860059840680090DD
:1058D00000285FD0FFE7009810285BD0FFE7009812
:1058E000202857D0FFE70098302853D0FFE70098D2
:1058F000402815D0FFE7009850283BD0FFE70098DC
:1059000060283FD0FFE70098702844D1FFE7069851
:105910000068059B9A68D9681B69FFF7DFFD3EE0C8
:1059200005980068052804D1FFE701208DF81F00C5
:105930003AE006980068006A019006980168086AD3
:1059400020F00100086206980068806902900298C1
:1059500020F0F000029005980169029840EA0110D9
:105960000290029806990968886101980699096869
:10597000086214E006980068059A9168126900F0C0
:1059800017F80CE006980068059A9168126900F013
:1059900037F804E003E001208DF81300FFE79DF8DD
:1059A00013008DF81F00FFE79DF81F0008B080BDB1
:1059B00085B00490039102920498006A00900499C3
:1059C000086A20F00100086204988069019001983B
:1059D00020F0F00001900299019840EA0110019036
:1059E000009820F00A000090039900980843009066
:1059F00001980499886100980499086205B070477D
:105A000085B00490039102920498006A0090049972
:105A1000086A20F0100008620498806901900198DB
:105A200020F4704001900299019840EA0130019001
:105A3000009820F0A00000900399009840EA01101F
:105A4000009001980499886100980499086205B053
:105A50007047000084B00390FFE7FFE703980068F9
:105A600050E8030F20F490700290FFE7029903982A
:105A7000026842E803100028F0D1FFE7FFE7FFE7E4
:105A8000FFE70398006850E8050F20F0010001903F
:105A9000FFE701990398026842E805100028F0D159
:105AA000FFE7FFE70398006B012814D1FFE7FFE74A
:105AB000FFE70398006850E8030F20F01000009003
:105AC000FFE700990398026842E803100028F0D12C
:105AD000FFE7FFE7FFE70399202081F842000399E1
